:020000040800F2
:100000007804002001010008C7130008630D0008F0
:10001000C513000845020008411500080000000053
:10002000000000000000000000000000CB130008EA
:100030004702000800000000C9130008CD130008A3
:100040001B0100081B0100081B0100081B01000820
:100050001B0100081B0100081B0100081B01000810
:100060001B0100081B0100081B0100081B01000800
:100070001B0100081B0100081B0100081B010008F0
:100080001B0100081B0100081B0100081B010008E0
:100090001B0100081B0100081B0100081B010008D0
:1000A0001B0100081B0100081B0100081B010008C0
:1000B0001B0100087D140008000000001B0100085F
:1000C0001B01000800000000000000001B010008E8
:1000D000000000001B0100081B01000800000000D8
:1000E0001B0100081B0100081B010008DFF80CD0F1
:1000F00000F040F80048004731170008780400205D
:100100000648804706480047FEE7FEE7FEE7FEE7B1
:10011000FEE7FEE7FEE7FEE7FEE7FEE73514000830
:10012000ED000008D2B201E000F8012B491EFBD21D
:1001300070470022F6E710B513460A4604461946F2
:10014000FFF7F0FF204610BD30B50B4601460020FA
:100150002022012409E021FA02F59D4205D303FA89
:1001600002F5491B04FA02F52844151EA2F101020A
:10017000F1DC30BD064C074D06E0E06840F00103BD
:1001800094E8070098471034AC42F6D3FFF7B2FF6B
:1001900098180008B818000870B50E4604460B4DB4
:1001A0000FE000220821284600F04CF9304600F00C
:1001B0004BF801220821284600F044F9304600F0AF
:1001C00043F8641EE4B2ECD270BD000000080140A8
:1001D0001A4810B5816986B041F0040181618169D6
:1001E00001F004010491816941F004018161806999
:1001F000134C00F0040004900820009001200190AE
:100200000290022003906946204600F02FF8062055
:1002100000906946204600F029F801220821204676
:1002200000F010F901220221204600F00BF9012212
:100230000421204600F006F906B010BD001002406F
:1002400000080140FEE7704770B5044600F000F971
:100250000546601C02D004480078044400F0F8F819
:10026000401BA042FAD370BD2C0000202DE9F84FAE
:10027000DFF89C91002409F1040A0AF1040B2346DB
:100280000F270BF1040EBBE00125A5402A40AA422E
:1002900076D1DFF880C14E68A6EB0C0866452BD0FE
:1002A0000DDC032E34D005DC36B3012E19D0022E1E
:1002B0002FD11BE0112E16D0122E2AD119E0B8F53D
:1002C000881F19D006DCB8F5803F15D0B8F5801F1F
:1002D0001FD111E0B8F5001F0ED0B8F5041F18D1DA
:1002E0000AE0CB6815E0CB681B1D12E0CB68083331
:1002F0000FE0CB680C330CE08B682BB1012B4FF077
:10030000080303D0456104E0042302E0056100E036
:100310000023FF2A01D8064601E000F104064FEA57
:10032000840501D9A5F12005D6F8008007FA05FC5F
:1003300028EA0C0803FA05F548EA0508C6F8008023
:100340004D68ED005BD5344DAE6946F00106AE61F7
:10035000AD6924F0030605F0010500952F4D06EB6D
:10036000050CDCF80850A607360F07FA06F825EA50
:100370000805DFF8AC80404503D14FF0000810E0DD
:100380003DE0DFF8A080404502D14FF0010808E0D1
:10039000DFF89480404502D14FF0020801E04FF0B1
:1003A000030808FA06F848EA0508CCF808804D6802
:1003B000D9F80060ED034D4601D5164300E09643A1
:1003C0002E604D68DAF80060AD03554601D516433E
:1003D00000E096432E604D68DBF80060ED025D465C
:1003E00001D5164300E096432E604D68DEF80060AC
:1003F000AD02754601D5164300E096432E60641C9D
:100400000A6832FA04F57FF43FAFBDE8F88F0000C8
:1004100000040140000011100010024000000140E3
:1004200000080140000C01400010014080680840B5
:1004300000D001207047C2680A4201D04161704774
:10044000016170470AB1016170470904FBE70000D0
:1004500001488068704700002C0000200248816835
:1004600002781144816070472C000020074810B5C5
:10047000016841F010010160032000F075F80020D0
:1004800000F006F800F024F8002010BD0020024023
:1004900070B50D4D04464FF47A712878B1FBF0F039
:1004A0000A490968B1FBF0F000F042FB48B9102C92
:1004B00007D200222146501E00F036F800206C6062
:1004C00070BD012070BD00002C000020280000201D
:1004D0000C4808B5816941F001018161816901F031
:1004E00001010091C16941F08051C161C06900F012
:1004F000805000900448416821F0E06141F0806143
:10050000416008BD0010024000000140002809DBE6
:1005100000F01F02012191404009800000F1E0201D
:10052000C0F8001170470000F0B40E4B1B680C4679
:10053000C3F30223C3F10705042D00D90425191DB7
:10054000072901D2002300E0DB1E012606FA05F18F
:10055000491E214099409E40761E16403143F0BC12
:1005600001F004B80CED00E0064900F0070208684D
:100570004FF6FF03184040EA0220034A1043086088
:10058000704700000CED00E00000FA052DE9F8438B
:1005900005460078354CC00754D0E0690026C000FD
:1005A00008D4E06940F08050E061E069012600F085
:1005B000805000902E480168C90512D40168804619
:1005C00041F480710160FFF743FF074605E000BF7B
:1005D000FFF73EFFC01B642823D8D8F80000C005F1
:1005E000F6D5206A10F4407021D0A98801F440713A
:1005F00081421CD0206A1F49012220F440700A6009
:1006000000220A602062C00711D0FFF721FF0746D1
:1006100041F2883808E000BFFFF71AFFC11B4145CF
:1006200002D90320BDE8F883206A8007F4D5206A48
:10063000696820F44070084320621EB1E06920F030
:100640008050E0612878800705D56068A96820F4AB
:100650004040084360602878C00605D56068E968B6
:1006600020F48000084360600020DBE700100240B7
:1006700000700040400442422DE9F0470F4605005B
:1006800061D0434E306800F00700B84209D23068AC
:1006900020F0070038433060306800F00700B842AF
:1006A00051D128683B4C810712D5400703D56068BB
:1006B00040F4E06060602878000703D5606840F48B
:1006C000605060606068A96820F0F00008436060D6
:1006D0002878C00728D06868012810D0216802282F
:1006E00010D0890700292EDA616821F00301014347
:1006F0006160FFF7ADFE804641F288390DE0216868
:100700008903EFE78901EDE7FFF7A2FEA0EB0801FF
:10071000494502D90320BDE8F0876068696800F0A8
:100720000C00B0EB810FEFD1306800F00700B84249
:100730000BD9306820F0070038433060306800F093
:100740000700B84201D00120E5E72878400705D529
:100750006068E96820F4E06008436060287800077A
:1007600006D56068296920F4605040EAC1006060E5
:1007700000F018F86168084AC1F30311515CC840E1
:100780000649086006480068FFF782FE0020C2E7BD
:1007900000200240001002406418000828000020D9
:1007A0003000002012A185B00FC98DE80F0014A001
:1007B000144A006804905168134801F00C03042B9C
:1007C00010D0082B0ED1C1F38343C9031DF80300D9
:1007D0000AD5516804AAC1F34041515C0A4A50430A
:1007E000B0FBF1F005B0704708494843FAE7000054
:1007F00002030405060708090A0B0C0D0E0F101062
:10080000010200000010024000127A0000093D00C1
:100810002DE9F84F040070D02078C04DC00749D0B2
:100820006868C0F38100012807D06868C0F38100C0
:10083000022809D16868C00306D52868800339D525
:1008400060680028E7D035E06068B0F5803F0BD0E5
:1008500010B1B0F5A02F11D0286820F480302860A6
:10086000286820F4802002E0286840F48030286066
:10087000606890B1FFF7ECFD06460AE0286840F496
:1008800080202860F0E700BFFFF7E2FD801B6428AE
:1008900073D828688003F7D50CE0FFF7D9FD06462A
:1008A00005E000BFFFF7D4FD801B6428F0D828685E
:1008B0008003F7D420789A4E80074FF001094FF05B
:1008C000000839D5686810F00C0F07D06868C0F3CD
:1008D0008100022809D16868C00306D4286880070F
:1008E00014D52069012808D110E02069B0B1C6F8FC
:1008F0000090FFF7ADFD074605E00AE1FFF7A8FD10
:10090000C01B0228C4D828688007F7D52868616909
:1009100020F0F80040EAC10028600DE0C6F8008031
:10092000FFF796FD074604E0FFF792FDC01B022883
:1009300023D828688007F7D4207800072CD5794879
:10094000A169D9B1C0F80090FFF782FD074604E025
:10095000FFF77EFDC01B02280FD8686A8007F7D515
:1009600071484FF4FA510068B0FBF1F0009000BFFD
:100970000098411E0091FAD20EE080E0C0F800809D
:10098000FFF766FD074604E0FFF762FDC01B022883
:1009900075D8686A8007F7D42078400760D5E86981
:1009A0000027C00008D4E86940F08050E861E86999
:1009B000012700F0805000905C480168C90513D4FD
:1009C0000168834641F480710160FFF741FD824672
:1009D00006E000BFFFF73CFDA0EB0A0064284ED8FC
:1009E000DBF80000C005F5D5E06801280AD008B1A1
:1009F000052813D0286A20F001002862286A20F018
:100A0000040002E0286A40F001002862E06841F238
:100A1000883B98B1FFF71CFD82460BE0286A40F046
:100A200004002862EEE700BFFFF712FDA0EB0A0109
:100A300059455AD8286A8007F6D50CE0FFF708FD1B
:100A4000824605E0FFF704FDA0EB0A0159454CD8AA
:100A5000286A8007F6D41FB1E86920F08050E86169
:100A6000E06988B36968C1F38101022944D0022892
:100A7000C6F8608004D0FFF7EBFC044638E034E0B1
:100A8000FFF7E6FC074604E0FFF7E2FCC01B022884
:100A90002BD828688001F7D4206AB0F5803F05D1B3
:100AA0006868A16820F4003008436860D4E9080150
:100AB0000843696821F4741108436860C6F86090BF
:100AC000FFF7C6FC044606E025E000BFFFF7C0FCC8
:100AD000001B022809D828688001F7D51BE000BF59
:100AE000FFF7B6FC001B022802D90320BDE8F88FEF
:100AF00028688001F4D40EE00128F7D06868226AE3
:100B000000F48031914204D1616A00F4701088428F
:100B100001D00120EAE70020E8E7000000100240D1
:100B20000000424280044242280000200070004041
:100B300010B5401EB0F1807F01D3012010BD4FF0F1
:100B4000E02460610F21601700F010FD0020A0611B
:100B500007202061002010BD7047704710B50400C9
:100B600003D094F83D0010B107E0012010BD002033
:100B700084F83C00204600F00DF8022084F83D0087
:100B8000211D206800F0AEFC012084F83D0000200B
:100B900010BD000008B500680B49884212D10B480F
:100BA000C16941F00201C161C069002200F0020088
:100BB000009001211D20FFF7B7FCBDE808401D2073
:100BC000FFF7A4BC08BD0000000400400010024074
:100BD0000168CA6842F00102CA600068816801F0D9
:100BE0000701062903D0016841F0010101600020DE
:100BF0007047704770B50446006801694FF0000502
:100C0000C943890715D4C168C943890711D4E91EAE
:100C1000016101202077206880698007204602D08A
:100C2000FFF7E7FF04E000F098F8204600F096F8A0
:100C3000257720680169C943490717D4C168C943AA
:100C4000490713D46FF00401016102202077206866
:100C5000806910F4407F204602D0FFF7CAFF04E00D
:100C600000F07BF8204600F079F8257720680169CC
:100C7000C943090716D4C168C943090712D46FF0E4
:100C800008010161042020772068C06980072046A0
:100C900002D0FFF7AEFF04E000F05FF8204600F05E
:100CA0005DF8257720680169C943C90617D4C16872
:100CB000C943C90613D46FF01001016108202077E1
:100CC0002068C06910F4407F204602D0FFF791FFF2
:100CD00004E000F042F8204600F040F82577206854
:100CE0000169C943C90708D1C168C943C90704D10B
:100CF000891E0161204600F032F820680169C9436D
:100D0000090609D4C168C943090605D46FF08001FA
:100D100001612046FFF720FF20680169C9434906A9
:100D200009D4C168C943490605D46FF04001016187
:100D3000204600F015F820680169C94389060BD4E4
:100D4000C168C943890607D46FF0200101612046BC
:100D5000BDE87040FFF701BF70BD70477047704736
:100D60007047FEE770B51E4886B0816941F0040106
:100D70008161816901F004010491816941F00401FC
:100D80008161806901AA00F0040004904FF4F070C2
:100D9000009001200024022582E83100114E6946AE
:100DA0003046FFF763FA2802CDE900046946304671
:100DB000CDE90245FFF75AFA6802009069463046CD
:100DC000FFF754FAA802009069463046FFF74EFA42
:100DD000E802009069463046FFF748FA06B070BD59
:100DE00000100240000801402DE9F05FE44D0122AF
:100DF0001B2411022846FFF725FB012280212846EB
:100E0000FFF720FB012240212846FFF71BFB0122B0
:100E100020212846FFF716FB6F1539462846FFF7B5
:100E200005FB06464FF4806B59462846FFF7FEFA4D
:100E300006434FF4006A51462846FFF7F7FA064387
:100E40004FF4805949462846FFF7F0FA064343D04D
:100E50000520FFF7F9F939462846FFF7E7FA064675
:100E600059462846FFF7E2FA064351462846FFF75F
:100E7000DDFA064349462846FFF7D8FA06432BD049
:100E800001221102A8462846FFF7DCFA0022802141
:100E90004046FFF7D7FA002240214046FFF7D2FA3A
:100EA000002220214046FFF7CDFA69154046FFF7A2
:100EB000BDFA054659464046FFF7B8FA074651467F
:100EC0004046FFF7B3FA064649464046FFF7AEFAFA
:100ED000012D04D045B10CE01B20BDE8F09F47B9BF
:100EE0003EB930B9012404E0012F02D10EB900B996
:100EF00005243D4303D1012E01D100B90924354316
:100F000002D1012800D10D2445464FF40077D9467F
:100F100039462846FFF78AFA064649462846FFF72B
:100F200085FA064351462846FFF780FA06434FF4F8
:100F300080512846FFF77AFA0643E9D100224FF4A0
:100F40008071A8462846FFF77DFA0122802140469D
:100F5000FFF778FA002240214046FFF773FA00229B
:100F600020214046FFF76EFABB4639464046FFF760
:100F70005DFA05464FF480614046FFF757FA074691
:100F8000D14651464046FFF751FA06464FF4805A83
:100F900051464046FFF74AFA012D01D02DB109E034
:100FA00047B93EB930B9022404E0012F02D10EB98D
:100FB00000B906243D4303D1012E01D100B900241C
:100FC000354302D1012800D10E245F4645464FF437
:100FD000806B39462846FFF729FA064659462846C7
:100FE000FFF724FA064349462846FFF71FFA06434F
:100FF00051462846FFF71AFA0643EAD100224FF479
:101000008071A8462846FFF71DFA0022802140463D
:10101000FFF718FA012240214046FFF713FA002299
:1010200020214046FFF70EFA4FF400714046FFF7CB
:10103000FDF905464FF480614046FFF7F7F9074692
:10104000CB4649464046FFF7F1F906464FF480513A
:101050004046FFF7EBF9012D01D02DB109E047B96A
:101060003EB930B9032404E0012F02D10EB900B912
:1010700007243D4303D1012E01D100B90B24354390
:1010800002D1012800D10F24DA4645464FF40079F9
:101090004FF480674FF4805B49462846FFF7C6F956
:1010A000064639462846FFF7C1F906435146284609
:1010B000FFF7BCF9064359462846FFF7B7F9064340
:1010C000EAD100224FF48071A8462846FFF7BAF90A
:1010D000002280214046FFF7B5F90022402140461A
:1010E000FFF7B0F9012220214046FFF7ABF949464E
:1010F0004046FFF79BF905464FF480614046FFF7F5
:1011000095F9074651464046FFF790F9064659467D
:101110004046FFF78BF9012D01D02DB109E047B909
:101120003EB930B9042404E0012F02D10EB900B950
:1011300008243D4303D1012E01D100B90C243543CD
:1011400002D1012800D1102446464FF480685F4642
:1011500049463046FFF76AF9054641463046FFF7F3
:1011600065F9054351463046FFF760F905433946B6
:101170003046FFF75BF90543EAD12046ADE60000B3
:10118000000801402C4810B5816986B041F0080183
:101190008161816901F008010491816941F00801D0
:1011A00081618069254C00F008000490E0200090E7
:1011B000012001900290039069462046FFF756F8FF
:1011C0004FF47F40009069462046FFF74FF8002219
:1011D00040212046FFF736F94FF4AA7000F09EFA3E
:1011E000002220212046FFF72DF9382000F09CF83E
:1011F000042000F08AFA082000F096F8042000F09D
:1012000084FA012000F090F8042000F07EFA062015
:1012100000F08AF8042000F078FA0C2000F084F83E
:10122000042000F072FA012000F07EF8042000F0A3
:101230006CFA06B010BD000000100240000C014026
:1012400070B50446334DC0074FF4807101D00122C0
:1012500000E000222846FFF7F5F8A0074FF40071E0
:1012600001D5012200E000222846FFF7EBF86007D5
:101270004FF4806101D5012200E000222846FFF7EB
:10128000E1F820074FF4006101D5012200E00022BF
:101290002846FFF7D7F8E0064FF4805101D5012228
:1012A00000E000222846FFF7CDF8A0064FF40051D9
:1012B00001D5012200E000222846FFF7C3F86006AE
:1012C0004FF4804101D5012200E000222846FFF7BB
:1012D000B9F820064FF4004101D5012200E00022B8
:1012E0002846FFF7AFF84FF4AA74204600F016FA2C
:1012F000012280212846FFF7A5F8204600F00EFACB
:10130000002280212846FFF79DF82046BDE8704066
:1013100000F004BA000C014019B1C030C0B200F0B6
:1013200003B88030FAE7000010B5044600222021FF
:101330000548FFF787F82046FFF782FFBDE8104019
:101340004FF4AA7000F0EAB9000C014010B5044651
:10135000012220210548FFF775F82046FFF770FFAE
:10136000BDE810404FF4AA7000F0D8B9000C01405D
:1013700010B51446FFF7D0FF03E000BFFFF7E6FF0C
:10138000641C20780028F9D110BD000070B50E460D
:1013900004460B4D0FE0002204212846FFF752F8C7
:1013A0003046FEF751FF012204212846FFF74AF894
:1013B0003046FEF749FF641EE4B2ECD270BD000077
:1013C00000080140FEE7704770477047FFF746B8D6
:1013D00010B594B028216846FEF7ABFE14210AA888
:1013E000FEF7A7FE00240F940A200090012010941D
:1013F0001194CDE906041021CDE904011294684648
:10140000FFF706FA0F20CDE90A044FF48060CDE91A
:101410000C4000210AA80E94FFF72EF903200F902C
:101420004FF40070CDE910040FA8FFF7AFF814B027
:1014300010BD00000D48016841F0010101604168E4
:101440000B4A1140416001680A4A1140016001687D
:1014500021F480210160416821F4FE0141604FF4D4
:101460001F0181600449C0030860704700100240FA
:101470000000FFF8FFFFF6FE08ED00E010B50B4C92
:101480006078401CC0B260700A280AD900206070E1
:1014900002210748FEF7CFFF012100202269FFF754
:1014A00067FFBDE810400348FFF7A4BB0000002021
:1014B0000008014038000020094A10B5074BC2E976
:1014C00000310021C2E9021010461161FFF746FB0E
:1014D000BDE810400248FFF77BBB0000000400405D
:1014E0003800002070B50268134B144C4FF0804652
:1014F000984203D0B04201D0A04203D122F070053F
:101500004A682A43984203D0B04201D0A04203D196
:1015100022F44074CA6822434C6922F080022243BC
:1015200002608A68C2620A688262984201D10969CF
:1015300001630121416170BD002C014000040040A5
:10154000FEE700000FB4084B10B504A902AA0398E7
:1015500000F02CF8044602A9002000F0D1F8204643
:1015600010BC5DF814FB0000011700080907090E04
:10157000002804DB00F1E02080F80014704700F040
:101580000F0000F1E02080F8141D704702E008C849
:10159000121F08C1002AFAD170477047002001E0ED
:1015A00001C1121F002AFBD1704700002DE9FF4F37
:1015B00089B09B460446002506E025280BD05A46F4
:1015C0000B999047641C6D1C20780028F5D10DB054
:1015D0002846BDE8F08F0027B8460122474900E0C1
:1015E000074314F8013F203B02FA03F00842F7D109
:1015F00020782E2819D114F8010F47F004072A2863
:101600000ED06FF02F022078A0F1300109290CD8FC
:1016100008EB880102EB410100EB0108641CF2E7D2
:101620000A98641C50F8048B0A9020780028CED0C9
:10163000642808D0692806D075281ED05A460B9910
:1016400090476D1C58E00A994FF00A0901C90A91A8
:10165000002802DA40422D2102E0390504D52B2171
:101660008DF82010012103E0F90704D02021F7E7CD
:101670008A4608AE0DE00021FAE70A994FF00A0900
:1016800001C90A91F7E74946FEF75EFD303106F8D9
:10169000011D0028F7D1ADEB060000F12009780705
:1016A00001D44FF00108C84502DDA8EB090000E0B5
:1016B00000208046002706E008A85A46C05D0B9926
:1016C00090476D1C7F1C5745F6DB04E030205A46DE
:1016D0000B9990476D1CB8F10001A8F10108F5DCE9
:1016E00005E016F8010B5A460B9990476D1CB9F1AD
:1016F0000001A9F10109F4DC641C65E70928010077
:101700000A68531C0B601070704700B5030004D0CA
:101710000A2000F003F85B1EFAD100BD0A22014640
:1017200000E0491E0029FCD1521EF8D1704700008C
:101730001FB50024FEF79AFEFFF74AFE472140F648
:101740005F10FFF7B9FEFEF743FDFFF70BFBFFF756
:1017500019FD00213BA20846FFF70AFEDFF8F080E2
:1017600008F10607A7F11A0517F10606FFF73CFB7B
:101770000A2806D23855641CE4B2052C10D900247E
:101780000EE00E2804D0102811D00D283ED007E01E
:1017900000244046395D0155641CE4B2062CF9D39F
:1017A00000200246395C092937D9325436E000203E
:1017B0004246395C135C994201D0012104E0401C8F
:1017C0000021C0B20628F4D3297059B101210620A6
:1017D000AA68FFF7CDFDC8210320FFF7D7FDC82178
:1017E00003200CE0012106206A68FFF7C1FD4FF4D9
:1017F000FA7421460120FFF7C9FD21460120FEF7BA
:10180000CBFC01210620EA68FFF7B2FD10481B223D
:101810000621801DFEF786FCB1E73154401CC0B2A2
:101820000628BFD3B07873793279F1788DE80F004C
:101830007378327807A12869FFF784FE1420FEF739
:1018400003FD93E750617373776F726400000000CB
:10185000140000202564256425642564256425641E
:10186000000000000000000000000000010203046E
:10187000060708092020202020202020202000000A
:10188000202020204E4F212020200000202020203A
:101890005945532120200000B818000800000020FE
:1018A000380000008C150008F018000838000020EF
:1018B000400400009C150008000000008C1800087F
:1018C00080180008741800080000000009010009D1
:1018D00003041B1B1B1B1B1B00000000000000005F
:1018E0000024F400010000001000000000000000CF
:04000005080000ED02
:00000001FF
